:1000000009308A0004290000FF00030E8301A100CB
:100010000A08A0008A010408A2007708A300780853
:10002000A4007908A5007A08A60003170D08031399
:10003000A70003170F080313A80003170C080313E6
:10004000A90003170E080313AA00831383128C3030
:100050008400801E2D288C1A58288C308400001CA7
:1000600033280C185B288B1E37280B195E282208B2
:1000700084002308F7002408F8002508F900260862
:10008000FA00270803178D000313280803178F00B1
:100090000313290803178C0003132A0803178E0083
:1000A000031320088A00210E8300FF0E7F0E090033
:1000B0008A110A1280288A110A126C288A110A12DF
:1000C00061286A0B67280130E8070318E90A8101F3
:1000D0000B118A110A1237280130E4070030031887
:1000E0000130E507003003180130E607003003183F
:1000F0000130E7078E018F010C108A110A12372890
:100100001A08B2003208643C031D89283108CC006B
:100110008F283208653C031D8F283108CD00320836
:100120001F3C03189B2833303107840083133208A7
:1001300080000130B107CD0803192B290130831647
:10014000EB006B08053C031CBF2801306B024E3EE0
:10015000F800FA010318FA0A7808EC007A08ED00B2
:1001600033306B07840083130008EE006C088400B2
:1001700083136D1883176E088000EB0AA1280130E5
:10018000EB006B08053C031CE02801306B02543E79
:10019000F800FA010318FA0A7808EC007A08ED0072
:1001A00006306B07333E840083130008EE006C08B2
:1001B000840083136D1883176E088000EB0AC12832
:1001C0000D30EB0083124C0883166B0203180229D2
:1001D0000D306B025A3EF800FA010318FA0A78084B
:1001E000EC007A08ED0033306B07840083130008BD
:1001F000EE006C08840083136D1883176E0880006E
:10020000EB0AE228013083124C078316EB008312BD
:100210004D0883166B0203182A2983124C08831693
:100220006B02FF3E5E3EF800FA010318FA0A7808F6
:10023000EC007A08ED0033306B078400831300086C
:10024000EE006C08840083136D1883176E0880001D
:10025000EB0A072983128C128A110A123728C4323A
:10026000F334F232641D0000C6326532E230E33509
:100270003A00253664102010201000002536641046
:10028000201020100000DF308400831300080319C1
:1002900056290630F800F701F70B4C29F80B4B29CB
:1002A0007B30F700F70B5229800B49290800831691
:1002B00066185E29831208126029831683120816B5
:1002C00083160812E6186829831288126A29831691
:1002D00083128816831688126619722983120813EE
:1002E000742983168312081783160813E6197C29CC
:1002F000831288137E298316831288178316881326
:10030000000083128815831688110230F700F70B5E
:1003100087298A2900008312881183168811831285
:1003200008008316E701081600308312081A01300E
:100330008316E704881600308312881A0130F7000C
:100340000310F70D77088316E704081700308312AF
:10035000081B0130F700F70DF70DFC30F7057708A3
:100360008316E704881700308312881B0130F700DA
:10037000F70DF70DF70DF830F70577088316E7044A
:100380006708F80083120800831688118810081186
:100390008312881083168810081688160817881785
:1003A000831208158316081100008312881583161E
:1003B000881100008312912178088316E6008312C9
:1003C00088118316881100008312881583168811FE
:1003D000E929EA2900008312912178088316E500B3
:1003E0008312881183168811081288120813881343
:1003F000660EF700F030F70577086504F800780816
:10040000E500E51BCC29E308031D0A2A83128810A6
:100410000C2A831683128814831688100000831216
:1004200008118316081100008312881183168811A1
:10043000640EE5000F30E5056508E60083125721DC
:10044000831664080F39E500E6008312572108007F
:1004500028308316D4000C30D5000130D600063089
:10046000D70083128811831688118312881083168F
:1004700088108312081183160811081288120813B5
:1004800088138811881008110F30DF008312432170
:1004900001308316D3005308033C031C5B2A03304E
:1004A000E6008312572105308316DF0083124321B3
:1004B0008316D30A4B2A0230E600831257210530F7
:1004C0008316DF00831243218316D3015308033CB4
:1004D000031C782AD4305307840083130008D80003
:1004E000E3015808E4008312C4218316D30A662A64
:1004F00083128A150A1220298316600B802A832A08
:100500004030E100842AE10101305F02E107610827
:100510008038E200E3016208E4008312C42108008D
:1005200083165E08073A83120319A02A0B3A0319AF
:10053000A72A063A0319B32A023A0319BB2AC22A88
:1005400001308316DF00E00083127C22C92A831663
:10055000E3010130E4008312C42102308316DF007E
:1005600083124321C92A01308316DF000230E000E4
:1005700083127C22C92A8316E3011030E40083121F
:10058000C421C92A01308316E3005E08E400831207
:10059000C421080006308316810083128A150A12CE
:1005A0002A29E0308B00013083168C0083129001E1
:1005B0008A150A122D2983161815813099001812F0
:1005C0008312981783168C1683120B178B17181625
:1005D0008316981683128A150A123029FF30831663
:1005E00092000C30831297000730920091018A1517
:1005F0000A1233290B088316D30083128B13831638
:1006000003178C170C14000000000313D31F0B2BCF
:1006100083128B178316831203170C087F39031973
:100620006C2B83160313D300831203170D08831654
:100630000313D400831203170F0883160313D50086
:100640005308DE0083129022831654088312031786
:100650008D00831603135508831203178F000313AD
:100660000B088316D60083128B13831603178C177F
:100670000C14000000000313D61F412B83128B17AC
:100680008316831203170C0D0E0D7F3903196C2B83
:1006900083160313D300831203170D088316031365
:1006A000D400831203170F0883160313D5005308D1
:1006B000DE008312902283165408831203178D00E4
:1006C000831603135508831203178F008D0A03192D
:1006D0008F0A0313FA2A0317031308008316D9019C
:1006E000D7010A30D800D601D50153085404031DA0
:1006F0007D2B0030F800F900A62C5908D90A5307C1
:1007000084008313541883170008DA005A082D3C1C
:10071000031D962B0130D7005908D90A53078400CE
:100720008313541883170008DA00A32B5A082B3CB4
:10073000031DA32B5908D90A5307840083135418A7
:1007400083170008DA005A082F3C0318972C5A0820
:10075000393C031C972C5A08303C031DCF2B5908F9
:10076000530784008313541883170008783C031937
:10077000C32B5908530784008313541883170008A8
:10078000583C031DCF2B1030D800D90A5908D90A7C
:10079000530784008313541883170008DA0058089D
:1007A0000A3C031D262C5A082F3C0318252C5A08F6
:1007B000393C031C252CDC010A30DB005608DE0026
:1007C0005508DD005C085E068039E000DC1FED2B7B
:1007D000DB09DC09DB0A0319DC0ADE1FF42BDD0967
:1007E000DE09DD0A0319DE0A1030DF00F701FA0125
:1007F000DC0CDB0C031C022C5D08F7070318FA0A5B
:100800005E08FA07FA0CF70CF90CF80CDF0BF82B62
:10081000E01F0F2CF809F909F80A0319F90A7908F9
:10082000DC007808DB0030305A025B07D5005C083A
:10083000D6000318D60A5908D90A5307840083132F
:10084000541883170008DA00D32B972C5808103C53
:10085000031D972C5A08603C0318352C5A087A3C23
:10086000031C352C5A08DF39362C5A08DA005A088E
:100870002F3C03183F2C5A08393C0318472C5A08C0
:10088000403C0318972C5A08463C031C972C5A08E6
:100890002F3C0318682C5A08393C031C682C550D52
:1008A000DB00560DDC00DB0DDC0DDB0DDC0DDB0DA4
:1008B000DC0DF030DB0530305A025B07F8005C08D5
:1008C000FA000318FA0A7808D5007A08D600812CB5
:1008D000550DDB00560DDC00DB0DDC0DDB0DDC0DFA
:1008E000DB0DDC0DF030DB0541305A020A3E5B07C0
:1008F000F8005C08FA000318FA0A7808D5007A08AC
:10090000D6005908D90A5307840083135418831753
:100910000008DA00603C0318942C5A087A3C031C47
:10092000942C5A08DF39952C5A08DA00372C5808CD
:100930000A3C031DA22C570BA22CD509D609D50AB7
:100940000319D60A5508F8005608F90083128A15CB
:100950000A129E298E30F70083165408F8005308B7
:10096000F900FA01F808031DBF2C7908F800F90115
:100970000830F702F808031DBF2CF701C72C03103D
:10098000F81BC62CF90DF80DF703BF2CF8138312D2
:1009900008008030831CCF2C8316E0068312831658
:1009A000E501E6015C08E4006008E4065B08031961
:1009B000BD2DE300F7005F080319C62DE3020319FC
:1009C000622D031C202D6008E900E9176108E8008A
:1009D0006208E700E6010310E90CE80CE70CE60CFE
:1009E000E30BEA2CE41FF72C6514DA2D6510631075
:1009F0006516DE3084008313EF2D6512E41B0A2D8B
:100A0000631C152DE90CE80CE70CE60CF70A03193A
:100A1000D52D152DE91B182D0310E60DE70DE80D5A
:100A2000E90DF7030319D52D0A2D6517822D6513DE
:100A30005C08E400E41F1E2DE917CE2DE913CE2D2E
:100A40005F08E300F7005B08E3025C08E900E917D0
:100A50005D08E8005E08E700E6010310E90CE80C19
:100A6000E70CE60CE30B2C2DE41F392DE514DA2DF1
:100A7000E5106310E516E23084008313EF2DE512D4
:100A8000E41B4C2D631C572DE90CE80CE70CE60C1D
:100A9000F70A0319D52D572DE91B5A2D0310E60D22
:100AA000E70DE80DE90DF7030319D52D4C2DE517DA
:100AB000822DE5136008E400E41F602DE917CE2DB8
:100AC000E913CE2D6008E900E9176108E800620823
:100AD000E700E41F6F2DE9136515DA2D6511E601B6
:100AE0006310DE3084008313EF2DE41B982D5C0827
:100AF000E400631C822DE90CE80CE70CE60CF70A15
:100B00000319D52DE61F932DE70A031D932DE80A3F
:100B1000031D932DE90A031D932DE90CE80CE70C46
:100B2000F70A0319D52D651B172DE51B592DB72D78
:100B30008030E906E91FA02DDA2D6008E400AD2D14
:100B40005C08E400E908031DAD2DE808031DAD2D88
:100B5000E708031DAD2DF701CE2DE91BB72D0310BE
:100B6000E60DE70DE80DE90DF70BAD2DD52DE41FD2
:100B7000BB2DE917CE2DE913CE2D5F08F7006008D5
:100B8000E9006108E8006208E700CE2D5B08F70085
:100B90005C08E9005D08E8005E08E7006908F80005
:100BA0006808F9006708FA000D2EF701F801F9014D
:100BB000FA010D2EE601E709E809E909E609E60A66
:100BC000031DE82DE70A031DE82DE80A0319E90AC9
:100BD0006518F62CE518382D65196E2D9D2D000829
:100BE000E707031CF92DE80A031DF92DE90A03198B
:100BF000631484030008E807031C012EE90A0319A3
:100C0000631484030008801F803AE9070318631403
:100C1000651AFD2CE51A3F2D752D831208008316E9
:100C200057080319D52EE3005B080319D52EE302FC
:100C3000031C1F2E7F30E3070318D52E252E81308D
:100C4000E302031CD52E0319D52E6308F700F80123
:100C5000F901FA01E2015808E100E1175908E00042
:100C60005A08DF001930E3005E08DF020318482E3F
:100C70000130E0020318482EE1020318482EE20278
:100C80000318482EE20AE10AE00A5E08DF077A2E1E
:100C90005D08E0020318632E0130E1020318632EA1
:100CA000E2020318632EE20AE10A5D08E0075E082B
:100CB000DF07031C7A2EE00A031D7A2EE10A031DCA
:100CC0007A2EE20A7A2E5C088038E1020318792E27
:100CD0000130E2020318792EE20A5C088038E1074D
:100CE0005D08E007031C572EE10A031D572EE20A98
:100CF000572E7A14E30B7D2E882E0310DF0DE00DA6
:100D0000E10DE20D0310FA0DF90DF80DE40D342E8E
:100D1000641C902E0310F80CF90CFA0CE40C932EC2
:100D2000F7030319D52EE41BBC2E0310DF0DE00DD5
:100D3000E10DE20D5E08DF020318A82E0130E0028B
:100D40000318A82EE1020318A82EE202031CCB2EE2
:100D50005D08E0020318B32E0130E1020318B32E40
:100D6000E202031CCB2E5C088038E1020318BC2E83
:100D70000130E202031CCB2EFA0A031DCB2EF90A26
:100D8000031DCB2EF80A031DCB2EF70A0319D52E0F
:100D9000F80CF90CFA0C5808E3005C08E306E31FB2
:100DA000D32EF817D92EF813D92EF701F801F9012F
:100DB000FA01831208008316570803194C2FDF002D
:100DC0005B0803194C2FDF070318ED2E7F30DF027D
:100DD000031C4C2F03194C2FF12E8130DF07031811
:100DE0004C2F5F08F700F801F901FA015808E300F9
:100DF000E3175908E2005A08E1001830DF00E0016B
:100E0000611C1A2F5E08FA07031C0C2FF90A031D38
:100E10000C2FF80A0319E0175D08F907031C132FBC
:100E2000F80A0319E0175C08D900D9175908F80720
:100E30000318E017E00DF80CF90CFA0CE30CE20CC7
:100E4000E10C0310DF0BFF2E0130F70703184C2FC6
:100E5000F81B312FE30DFA0DF90DF80DF703031907
:100E60004C2FE31F422FFA0A031D422FF90A031DDC
:100E7000422FF80A031D422FF80CF90CFA0CF70A5E
:100E800003194C2F5808E0005C08E006E01F4A2FC9
:100E9000F817502FF813502FF701F801F901FA0154
:100EA0008312080083165408DB005808DB06DB1F9A
:100EB0005E2F03110310D41B0314912F5408DB0081
:100EC0005708DC005308DC0203196C2FDB1F912F3D
:100ED0000308013A8300912F5808DC005408DC0213
:100EE0000319782FDB1F912F0308013A8300912FFC
:100EF0005908DC005508DC020319842FDB1F912FF1
:100F00000308013A8300912F5A08DC005608DC02DE
:100F10000319902FDB1F912F0308013A8300912FB3
:100F2000031083120800831083165A08DE00590844
:100F3000DD005808DC005708DB00E201E101E001B8
:100F40007E30DF008312C9247A088316DE00790818
:100F5000DD007808DC007708DB008E30F7005B08E6
:100F6000F7025C08F9005D08F800F917F7080319A3
:100F7000C42F0310F908031DC02FF8080319C42F4C
:100F8000F90CF80CF70BB92FDC1FCB2FF809F90976
:100F9000F80A0319F90A790883120800B630F70035
:100FA000FA01F901F80183165708580459045A0444
:100FB000031DDC2FF701E92F0310F81BE82FD70DD5
:100FC000D80DD90DDA0DFA0DF90DF80DF70BDC2F50
:100FD000F813831208008316981CEC2F5408831210
:040FE000990008006C
:101000008316DD010408DC005D10831B5D14D61F10
:101010001128DC175C1EDC0AD509D609D50A03198C
:10102000D60A560EF038D800D807E23ED900323E34
:10103000DB0056080F39D907D907DB07E93EDA008C
:10104000DA07DA07550E0F39DA07DB07DA0DDB0DA1
:10105000DB09DB0D55080F39DB07D80D0730D7004A
:101060000A30DB07DA03031C3128DA07D903031C33
:101070003528D907D803031C3928D807D703031C00
:101080003D28D7308400831307305C055C1384034C
:101090005C05031D52285C1A840A5C1A5228203011
:1010A000F7006F288407DB30040203195C1700087F
:1010B000F700031D63285C1B63285C1A8128DC1978
:1010C000632820306E28DC1F6B282D30F700840346
:1010D0005C13DC136F28DC155C123030F707D60187
:1010E0000408D5005610831B56147708DE008A11B9
:1010F000831290228A15831655088400831356188C
:101100008317840A5C1F5328831208000B08831678
:10111000D60083128B13831603178C170C14000050
:1011200000000313D61F972883128B17831603180A
:10113000D228831203170C087F3983160313D600B5
:10114000831203170D0883160313D70083120317A6
:101150000F0883160313D8005608DE008A11831285
:1011600090228A1583165708831203178D00831661
:1011700003135808831203178F0003130B088316F9
:10118000D90083128B13831603178C170C140000DD
:1011900000000313D91FCF2883128B178316D50B9A
:1011A000D2280229831203170C0D0E0D7F398316E6
:1011B0000313D600831203170D0883160313D700F9
:1011C000831203170F0883160313D8005608DE0096
:1011D0008A11831290228A158316570883120317E7
:1011E0008D00831603135808831203178F008D0A8E
:1011F00003198F0A031083160313D50B0029022944
:10120000831286288312080003081F398300B10166
:10121000CC01CD01E701E601E501E40183161F14CD
:101220009F141F159F1107309C0083138312AB017D
:10123000AC01C1308316870088018A118312282AE5
:101240008A150C308316DE008A11831290228A15CB
:101250008A11CA2A8A158A11D12A8A158A11DB2A8B
:101260008A158A11EE2A8A15FB01FC018316A30157
:10127000A201A101A001CD30A700CC30A6004C30C6
:10128000A5007C30A400AB01AA01A901A801AF010F
:10129000AE01AD01AC01B301B201B101B001B701C2
:1012A000B601B501B4010A30BB00D730BA00233013
:1012B000B9007930B800C301C201C101C001C70142
:1012C000C601C501C401CB01CA01C901C801CF01D2
:1012D000CE01CD01CC018312950187100130831618
:1012E000DF00E0008A1183127C228A152F30031759
:1012F0008D0001308F008A110313FA228A15013004
:101300008316DF000230E0008A1183127C228A15E6
:10131000343003178D0001308F008A110313FA2235
:101320008A15E208031DA429E308031DA4298316D6
:10133000D4015E30D3008A1183126E2B8A1579088E
:10134000E3007808E2009C2DFB080319B1298316FD
:101350003F08BB003E08BA003D08B9003C08B80091
:1013600083120130EA008101E901E8016308831674
:10137000D400831262088316D3008A118312AA2430
:101380008A157A088316AF007908AE007808AD0098
:101390007708AC0083142F08DE002E08DD002D082E
:1013A000DC002C08DB003708E2003608E1003508D5
:1013B000E0003408DF008A118312C9248A157A08F4
:1013C0008316CB007908CA007808C9007708C800DE
:1013D00083144B08DE004A08DD004908DC00480899
:1013E000DB004708E2004608E1004508E000440849
:1013F000DF008A118312C9248A157A088316D40063
:101400007908D3007808D2007708D1005408DA00B0
:101410005308D9005208D8005108D7003B08DE0015
:101420003A08DD003908DC003808DB008A11831235
:101430000F268A157A088316CF007908CE0078081F
:10144000CD007708CC004B08DA004A08D9004908DB
:10145000D8004808D7003B08DE003A08DD0039080C
:10146000DC003808DB008A118312DB268A15831022
:1014700083164308DE004208DD004108DC00400816
:10148000DB007A08E2007908E1007808E0007708DC
:10149000DF008A118312C9248A157A088316C300D3
:1014A0007908C2007808C1007708C0004B08C7005F
:1014B0004A08C6004908C5004808C4002308DA00E5
:1014C0002208D9002108D8002008D7004B08DE00E8
:1014D0004A08DD004908DC004808DB008A11831255
:1014E000DB268A157A088316D4007908D300780899
:1014F000D2007708D1002708DA002608D90025088D
:10150000D8002408D7004308DE004208DD00410867
:10151000DC004008DB008A118312DB268A15831069
:1015200083165408DE005308DD005208DC00510821
:10153000DB007A08E2007908E1007808E00077082B
:10154000DF008A118312C9248A157A088316D40011
:101550007908D3007808D2007708D1002B08DA0088
:101560002A08D9002908D8002808D7004F08DE002B
:101570004E08DD004D08DC004C08DB008A118312A8
:10158000DB268A15831083165408DE005308DD001D
:101590005208DC005108DB007A08E2007908E1001B
:1015A0007808E0007708DF008A118312C9248A15C1
:1015B0007A088316B3007908B2007808B10077087A
:1015C000B0003308D6003208D5003108D400300806
:1015D000D300DA01D901D801D7018A118312522729
:1015E0008A15031CF52A8714F62A87108316D6015C
:1015F000D5014030D4008230D3003308DA003208FD
:10160000D9003108D8003008D7008A118312522738
:101610008A15031C132B8316B301B2014030B100AD
:101620008230B000831283163308D6003208D5000A
:101630003108D4003008D300DA01D901C030D80015
:101640008230D7008A11831252278A15031C302B4F
:101650008316B301B201C030B1008230B0008312F2
:1016600083163008F7003108F8003208F900330813
:10167000FA00F813DA01D9017F30D8008630D7009C
:101680003308DE003208DD007808DC003008DB00BB
:101690008A118312DB268A157A088316D40079080A
:1016A000D3007808D2007708D1005408DA00530834
:1016B000D9005208D8005108D700DE01DD014030C2
:1016C000DC008230DB008A1183120F268A157A082B
:1016D0008316D4007908D3007808D2007708D100A7
:1016E0005408DA005308D9005208D8005108D7002E
:1016F0008A11831293278A157908FE007808FD0065
:101700007E08003C0318872BFE01FF30FD007D089A
:1017100095008E018F0107188B2B071C8D2B101441
:101720000718902B071C922B10100F088316D2005D
:1017300083120E088316D1008312F701F80177088F
:10174000831651078312EB00831652088312EC00B4
:1017500078080318780FEC076408ED0000300318D0
:101760000130ED076508EE00003003180130EE0788
:101770006E088316DA0083126D088316D90083126F
:101780006C088316D80083126B088316D7008A1161
:101790008312CE278A1580308316DA009630D9005E
:1017A0001830D8009530D7007A08DE007908DD00BF
:1017B0007808DC007708DB008A1183120F268A156F
:1017C0007A088316D4007908D3007808D200770805
:1017D000D1005408DA005308D9005208D800510843
:1017E000D700DE01DD014030DC008330DB008A11F0
:1017F00083120F268A157A088316D4007908D3003D
:101800007808D2007708D1005408DA005308D900CC
:101810005208D8005108D700DE01DD017030DC002D
:101820008430DB008A118312DB268A157A08F600E1
:101830007908F5007808F4007708F3007608831635
:10184000DA007508D9007408D8007308D7008A1127
:10185000831293278A1579088316D4007808D30059
:101860008A118312AA248A157A088316B700790888
:10187000B6007808B5007708B4000130FB00831289
:10188000E701E601E501E401EA0100300107EF00AC
:101890006808F000003003180130F007F101F20190
:1018A0006F0D8316D100700DD200710DD300720D33
:1018B000D400D10DD20DD30DD40DD10DD20DD30D39
:1018C000D40DD10DD20DD30DD40DD10DD20DD30D1C
:1018D000D40DD10DD20DD30DD40DD10DD20DD30D0C
:1018E000D40D8030D1055408DA005308D9005208CD
:1018F000D8005108D7008A118312CE278A157A089A
:101900008316DA007908D9007808D8007708D7005C
:10191000DE01DD01DC017F30DB008A118312DB2672
:101920008A157A088316D4007908D3007808D20083
:101930007708D1005408DA005308D9005208D800BB
:101940005108D7008030DE009630DD001830DC0012
:101950009530DB008A1183120F268A157A088316C8
:10196000BF007908BE007808BD007708BC000930C8
:10197000DF000130E0008A1183127C228A151030CA
:10198000840063088316D600831262088316D5008C
:10199000831200203A3003178D0001308F000314AA
:1019A000053083160313D500831286200A30831670
:1019B000DF000230E0008A1183127C228A1576084B
:1019C0008316DA007508D9007408D8007308D700A8
:1019D0008A11831293278A1579088316D200780812
:1019E000D100103084005208D6005108D50083126F
:1019F00000203F3003178D0001308F0003140530A5
:101A000083160313D50083128620FC08031D952D31
:101A10008316D0015008043C031C1C2D4E30500787
:101A2000840083130008D100D4008A118312EB27AD
:101A30008A158316D00A0A2D0A30D4008A1183121F
:101A4000EB278A150D308316D4008A118312EB27F9
:101A50008A158316D0015008043C031C3D2D5430D8
:101A60005007840083130008D100D4008A11831228
:101A7000EB278A158316D00A2B2D0A30D4008A1141
:101A80008312EB278A150D308316D4008A11831236
:101A9000EB278A158316D0010D3083124C02831672
:101AA00050020318612D5A30500784008313000838
:101AB000D100D4008A118312EB278A158316D00A2D
:101AC0004C2D0A30D4008A118312EB278A150D3071
:101AD0008316D4008A118312EB278A158316D0014E
:101AE00083124C084D02FF3E831650020318862DC8
:101AF0005E305007840083130008D100D4008A119F
:101B00008312EB278A158316D00A702D0A30D40071
:101B10008A118312EB278A150D308316D4008A119F
:101B20008312EB278A150130FC000A308316DF0090
:0C1B30008A11831243218A159129630059
:02400E00323F3F
:00000001FF
;PIC16F877A
;CRC=9CF7  CREATED="10-May-24 11:53"
