:1000000009308A0053290000FF00030E8301A1007C
:100010000A08A0008A010408A2007708A300780853
:10002000A4007908A5007A08A60003170D08031399
:10003000A70003170F080313A80003170C080313E6
:10004000A90003170E080313AA00831383128C3030
:100050008400801E2D288C1A58288C308400001CA7
:1000600033280C185B288B1E37280B195E282208B2
:1000700084002308F7002408F8002508F900260862
:10008000FA00270803178D000313280803178F00B1
:100090000313290803178C0003132A0803178E0083
:1000A000031320088A00210E8300FF0E7F0E090033
:1000B0008A110A1280288A110A126C288A110A12DF
:1000C00061286A0B67280130E8070318E90A8101F3
:1000D0000B118A110A1237280130E4070030031887
:1000E0000130E507003003180130E607003003183F
:1000F0000130E7078E018F010C108A110A12372890
:100100001A08B2003208643C031D89283108CC006B
:100110008F283208653C031D8F283108CD00320836
:100120001F3C03189B2833303107840083133208A7
:1001300080000130B107CD0803194B290130831627
:10014000EE006E08053C031CC72801306E024E3ECF
:10015000F800FA010318FA0A7808831203179000CE
:100160007A0891003330831603136E0784008313DB
:1001700000088312031792001008840083131118DB
:1001800083171208800083160313EE0AA12801309A
:10019000EE006E08053C031CF02801306E02543E50
:1001A000F800FA010318FA0A78088312031790007E
:1001B0007A0891000630831603136E07333E8400DD
:1001C000831300088312031792001008840083131E
:1001D000111883171208800083160313EE0AC9282A
:1001E0000D30EE0083124C0883166E0203181A2994
:1001F0000D306E025A3EF800FA010318FA0A780828
:100200008312031790007A0891003330831603138A
:100210006E078400831300088312031792001008EE
:1002200084008313111883171208800083160313A8
:10023000EE0AF228013083124C078316EE00831277
:100240004D0883166E0203184A2983124C08831640
:100250006E02FF3E5E3EF800FA010318FA0A7808C3
:100260008312031790007A0891003330831603132A
:100270006E0784008313000883120317920010088E
:100280008400831311188317120880008316031348
:10029000EE0A1F2983128C128A110A123728C432DF
:1002A000F334F232641D0000C6326532E230E335C9
:1002B0003A00253664102010201000002536641006
:1002C000201020100000E23084008313000803197E
:1002D00076290630F800F701F70B6C29F80B6B292B
:1002E0007B30F700F70B7229800B69290800831611
:1002F00069187E2983120812802983168312081632
:1003000083160812E9188829831288128A2983160D
:10031000831288168316881269199229831208138A
:10032000942983168312081783160813E9199C2948
:10033000831288139E2983168312881783168813C5
:10034000000083128815831688110230F700F70B1E
:10035000A729AA2900008312881183168811831205
:1003600008008316EA01081600308312081A0130CB
:100370008316EA04881600308312881A0130F700C9
:100380000310F70D77088316EA040817003083126C
:10039000081B0130F700F70DF70DFC30F705770863
:1003A0008316EA04881700308312881B0130F70097
:1003B000F70DF70DF70DF830F70577088316EA0407
:1003C0006A08F80083120800831688118810081143
:1003D0008312881083168810081688160817881745
:1003E00083120815831608110000831288158316DE
:1003F000881100008312B12178088316E900831266
:1004000088118316881100008312881583168811BD
:10041000092A0A2A00008312B12178088316E8000D
:100420008312881183168811081288120813881302
:10043000690EF700F030F70577086804F8007808CF
:10044000E800E81BEC29E608031D2A2A831288101D
:100450002C2A8316831288148316881000008312B6
:100460000811831608110000831288118316881161
:10047000670EE8000F30E8056808E900831277216D
:10048000831667080F39E800E90083127721080016
:1004900028308316D7000C30D8000130D900063040
:1004A000DA0083128811831688118312881083164C
:1004B0008810831208118316081108128812081375
:1004C00088138811881008110F30E200831263210D
:1004D00001308316D6005608033C031C7B2A0330E8
:1004E000E9008312772105308316E200831263212D
:1004F0008316D60A6B2A0230E90083127721053071
:100500008316E200831263218316D6015608033C4A
:10051000031C982AD7305607840083130008DB0099
:10052000E6015B08E7008312E4218316D60A862AD7
:1005300083128A150A126F298316630BA02AA32A35
:100540004030E400A42AE40101306202E4076408B8
:100550008038E500E6016508E7008312E421080021
:1005600083166108073A83120319C02A0B3A03194C
:10057000C72A063A0319D32A023A0319DB2AE22AC8
:1005800001308316E200E30083129C22E92A8316DD
:10059000E6010130E7008312E42102308316E20015
:1005A00083126321E92A01308316E2000230E3005E
:1005B00083129C22E92A8316E6011030E700831299
:1005C000E421E92A01308316E6006108E70083127E
:1005D000E421080006308316810083128A150A126E
:1005E0007929E0308B00013083168C008312900152
:1005F0008A150A127C298316181581309900181261
:100600008312981783168C1683120B178B171816E4
:100610008316981683128A150A127F29FF308316D3
:1006200092000C30831297000730920091018A15D6
:100630000A1282290B088316D60083128B138316A5
:1006400003178C170C14000000000313D61F2B2B6C
:1006500083128B178316831203170C087F39031933
:100660008C2B83160313D600831203170D088316F1
:100670000313D700831203170F0883160313D80040
:100680005608E1008312B02283165708831203171D
:100690008D00831603135808831203178F0003136A
:1006A0000B088316D90083128B13831603178C173C
:1006B0000C14000000000313D91F612B83128B1749
:1006C0008316831203170C0D0E0D7F3903198C2B23
:1006D00083160313D600831203170D088316031322
:1006E000D700831203170F0883160313D800560888
:1006F000E1008312B02283165708831203178D007E
:10070000831603135808831203178F008D0A0319E9
:100710008F0A03131A2B0317031308008316DC0137
:10072000DA010A30DB00D901D80156085704031D4D
:100730009D2B0030F800F900C62C5C08DC0A560737
:1007400084008313571883170008DD005D082D3CD3
:10075000031DB62B0130DA005C08DC0A5607840062
:100760008313571883170008DD00C32B5D082B3C4B
:10077000031DC32B5C08DC0A56078400831357183B
:1007800083170008DD005D082F3C0318B72C5D08B7
:10079000393C031CB72C5D08303C031DEF2B5C0873
:1007A000560784008313571883170008783C0319F1
:1007B000E32B5C085607840083135718831700083F
:1007C000583C031DEF2B1030DB00DC0A5C08DC0A10
:1007D000560784008313571883170008DD005B0851
:1007E0000A3C031D462C5D082F3C0318452C5D0870
:1007F000393C031C452CDF010A30DE005908E100BA
:100800005808E0005F0861068039E300DF1F0D2C07
:10081000DE09DF09DE0A0319DF0AE11F142CE009F3
:10082000E109E00A0319E10A1030E200F701FA01D8
:10083000DF0CDE0C031C222C6008F7070318FA0AF1
:100840006108FA07FA0CF70CF90CF80CE20B182CFB
:10085000E31F2F2CF809F909F80A0319F90A790896
:10086000DF007808DE0030305D025E07D8005F08E8
:10087000D9000318D90A5C08DC0A560784008313E0
:10088000571883170008DD00F32BB72C5B08103CCA
:10089000031DB72C5D08603C0318552C5D087A3C9D
:1008A000031C552C5D08DF39562C5D08DD005D0802
:1008B0002F3C03185F2C5D08393C0318672C5D083A
:1008C000403C0318B72C5D08463C031CB72C5D0860
:1008D0002F3C0318882C5D08393C031C882C580DCC
:1008E000DE00590DDF00DE0DDF0DDE0DDF0DDE0D4C
:1008F000DF0DF030DE0530305D025E07F8005F0886
:10090000FA000318FA0A7808D8007A08D900A12C4E
:10091000580DDE00590DDF00DE0DDF0DDE0DDF0DA1
:10092000DE0DDF0DF030DE0541305D020A3E5E0770
:10093000F8005F08FA000318FA0A7808D8007A0865
:10094000D9005C08DC0A5607840083135718831704
:100950000008DD00603C0318B42C5D087A3C031CE1
:10096000B42C5D08DF39B52C5D08DD00572C5B0821
:100970000A3C031DC22C5A0BC22CD809D909D80A2B
:100980000319D90A5808F8005908F90083128A1582
:100990000A12F1298E30F70083165708F80056081E
:1009A000F900FA01F808031DDF2C7908F800F901B5
:1009B0000830F702F808031DDF2CF701E72C0310BD
:1009C000F81BE62CF90DF80DF703DF2CF813831252
:1009D00008008030831CEF2C8316E30683128316F5
:1009E000E801E9015F08E7006308E7065E0803190C
:1009F000DD2DE600F70062080319E62DE602031973
:100A0000822D031C402D6308EC00EC176408EB00FA
:100A10006508EA00E9010310EC0CEB0CEA0CE90CA8
:100A2000E60B0A2DE71F172D6814FA2D68106610C3
:100A30006816E130840083130F2E6812E71B2A2DFD
:100A4000661C352DEC0CEB0CEA0CE90CF70A0319CB
:100A5000F52D352DEC1B382D0310E90DEA0DEB0DAE
:100A6000EC0DF7030319F52D2A2D6817A22D681335
:100A70005F08E700E71F3E2DEC17EE2DEC13EE2D7F
:100A80006208E600F7005E08E6025F08EC00EC177B
:100A90006008EB006108EA00E9010310EC0CEB0CC4
:100AA000EA0CE90CE60B4C2DE71F592DE814FA2D42
:100AB000E8106610E816E530840083130F2EE81264
:100AC000E71B6C2D661C772DEC0CEB0CEA0CE90C8B
:100AD000F70A0319F52D772DEC1B7A2D0310E90D7C
:100AE000EA0DEB0DEC0DF7030319F52D6C2DE8174E
:100AF000A22DE8136308E700E71F802DEC17EE2D09
:100B0000EC13EE2D6308EC00EC176408EB006508AD
:100B1000EA00E71F8F2DEC136815FA2D6811E90123
:100B20006610E130840083130F2EE71BB82D5F0899
:100B3000E700661CA22DEC0CEB0CEA0CE90CF70AA2
:100B40000319F52DE91FB32DEA0A031DB32DEB0A96
:100B5000031DB32DEC0A031DB32DEC0CEB0CEA0CBA
:100B6000F70A0319F52D681B372DE81B792DD72DB2
:100B70008030EC06EC1FC02DFA2D6308E700CD2D68
:100B80005F08E700EC08031DCD2DEB08031DCD2DFC
:100B9000EA08031DCD2DF701EE2DEC1BD72D031018
:100BA000E90DEA0DEB0DEC0DF70BCD2DF52DE71F43
:100BB000DB2DEC17EE2DEC13EE2D6208F700630829
:100BC000EC006408EB006508EA00EE2D5E08F70013
:100BD0005F08EC006008EB006108EA006C08F800B0
:100BE0006B08F9006A08FA002D2EF701F801F901E7
:100BF000FA012D2EE901EA09EB09EC09E909E90AF4
:100C0000031D082EEA0A031D082EEB0A0319EC0A3D
:100C10006818162DE818582D68198E2DBD2D00085E
:100C2000EA07031C192EEB0A031D192EEC0A0319FF
:100C3000661484030008EB07031C212EEC0A031939
:100C4000661484030008801F803AEC0703186614BA
:100C5000681A1D2DE81A5F2D952D83120800831642
:100C60005A080319F52EE6005E080319F52EE60270
:100C7000031C3F2E7F30E6070318F52E452E8130EA
:100C8000E602031CF52E0319F52E6608F700F8019D
:100C9000F901FA01E5015B08E400E4175C08E300F0
:100CA0005D08E2001930E6006108E2020318682ED0
:100CB0000130E3020318682EE4020318682EE502EF
:100CC0000318682EE50AE40AE30A6108E2079A2E8F
:100CD0006008E3020318832E0130E4020318832E18
:100CE000E5020318832EE50AE40A6008E3076108B9
:100CF000E207031C9A2EE30A031D9A2EE40A031D41
:100D00009A2EE50A9A2E5F088038E4020318992E7D
:100D10000130E5020318992EE50A5F088038E407E0
:100D20006008E307031C772EE40A031D772EE50A0B
:100D3000772E7A14E60B9D2EA82E0310E20DE30DFC
:100D4000E40DE50D0310FA0DF90DF80DE70D542E25
:100D5000671CB02E0310F80CF90CFA0CE70CB32E3C
:100D6000F7030319F52EE71BDC2E0310E20DE30D4C
:100D7000E40DE50D6108E2020318C82E0130E3021C
:100D80000318C82EE4020318C82EE502031CEB2E3C
:100D90006008E3020318D32E0130E4020318D32EB7
:100DA000E502031CEB2E5F088038E4020318DC2EFA
:100DB0000130E502031CEB2EFA0A031DEB2EF90AA3
:100DC000031DEB2EF80A031DEB2EF70A0319F52E6F
:100DD000F80CF90CFA0C5B08E6005F08E606E61F63
:100DE000F32EF817F92EF813F92EF701F801F9018F
:100DF000FA018312080083165A0803196C2FE200C7
:100E00005E0803196C2FE20703180D2F7F30E202F2
:100E1000031C6C2F03196C2F112F8130E20703186C
:100E20006C2F6208F700F801F901FA015B08E6008F
:100E3000E6175C08E5005D08E4001830E200E30115
:100E4000641C3A2F6108FA07031C2C2FF90A031DB2
:100E50002C2FF80A0319E3176008F907031C332F36
:100E6000F80A0319E3175F08DC00DC175C08F807D1
:100E70000318E317E30DF80CF90CFA0CE60CE50C7B
:100E8000E40C0310E20B1F2F0130F70703186C2F3F
:100E9000F81B512FE60DFA0DF90DF80DF7030319A4
:100EA0006C2FE61F622FFA0A031D622FF90A031D39
:100EB000622FF80A031D622FF80CF90CFA0CF70ADE
:100EC00003196C2F5B08E3005F08E306E31F6A2F3A
:100ED000F817702FF813702FF701F801F901FA01D4
:100EE0008312080083165708DE005B08DE06DE1F4B
:100EF0007E2F03110310D71B0314B12F5708DE00F8
:100F00005A08DF005608DF0203198C2FDE1FB12FAD
:100F10000308013A8300B12F5B08DF005708DF02A6
:100F20000319982FDE1FB12F0308013A8300B12F58
:100F30005C08DF005808DF020319A42FDE1FB12F61
:100F40000308013A8300B12F5D08DF005908DF0272
:100F50000319B02FDE1FB12F0308013A8300B12F10
:100F6000031083120800831083165D08E1005C08FB
:100F7000E0005B08DF005A08DE00E501E401E30160
:100F80007E30E2008312E9247A088316E1007908B2
:100F9000E0007808DF007708DE008E30F7005E089A
:100FA000F7025F08F9006008F800F917F70803195D
:100FB000E42F0310F908031DE02FF8080319E42FAC
:100FC000F90CF80CF70BD92FDF1FEB2FF809F909F3
:100FD000F80A0319F90A7908831208008316981C85
:0A0FE000EF2F570883129900080054
:1010000083165908FA005808840083135918831767
:10101000570CDF00560CDE00DF0CDE0C3F30DF0526
:10102000FA015E0880005A08840083135B18831756
:101030000310570CDF00560CDE000139F700FA01EF
:101040007708800001305A07840083135B188317E8
:1010500056080139F700FA017708800083128A15D3
:101060000A12E92BB630F700FA01F901F8018316EC
:101070005A085B045C045D04031D4028F7014D28F9
:101080000310F81B4C28DA0DDB0DDC0DDD0DFA0D1D
:10109000F90DF80DF70B4028F8138312080083169A
:1010A000E0010408DF006010831B6014D91F602872
:1010B000DF175F1EDF0AD809D909D80A0319D90A30
:1010C000590EF038DB00DB07E23EDC00323EDE008A
:1010D00059080F39DC07DC07DE07E93EDD00DD07D4
:1010E000DD07580E0F39DD07DE07DD0DDE0DDE09E9
:1010F000DE0D58080F39DE07DB0D0730DA000A3045
:10110000DE07DD03031C8028DD07DC03031C8428C5
:10111000DC07DB03031C8828DB07DA03031C8C28AD
:10112000DA308400831307305F055F1384035F05A3
:10113000031DA1285F1A840A5F1AA1282030F70036
:10114000BE288407DE30040203195F170008F70089
:10115000031DB2285F1BB2285F1AD028DF19B228FE
:101160002030BD28DF1FBA282D30F70084035F131D
:10117000DF13BE28DF155F123030F707D9010408EE
:10118000D8005910831B59147708E1008A11831283
:10119000B0228A15831658088400831359188317C0
:1011A000840A5F1FA228831208000B088316D90047
:1011B00083128B13831603178C170C140000000086
:1011C0000313D91FE62883128B17831603182129CE
:1011D000831203170C087F3983160313D900831277
:1011E00003170D0883160313DA00831203170F0881
:1011F00083160313DB005908E1008A118312B02221
:101200008A1583165A08831203178D008316031359
:101210005B08831203178F0003130B088316DC008F
:1012200083128B13831603178C170C140000000015
:101230000313DC1F1E2983128B178316D80B212959
:101240005129831203170C0D0E0D7F3983160313DA
:10125000D900831203170D0883160313DA008312D3
:1012600003170F0883160313DB005908E1008A11E6
:101270008312B0228A1583165A08831203178D0031
:10128000831603135B08831203178F008D0A03195B
:101290008F0A031083160313D80B4F295129831289
:1012A000D5288312080003081F398300B101CC013F
:1012B000CD01E701E601E501E40183161F149F1447
:1012C0001F159F1107309C0083138312AB01AC01E3
:1012D000C1308316870088018A118312482A8A1533
:1012E0000C308316E1008A118312B0228A158A110C
:1012F000EA2A8A158A11F12A8A158A11FB2A8A1587
:101300008A110E2B8A15FB01FC016F308316A30096
:101310001230A2000330A1007530A0009A30A7005F
:101320009930A6001930A5007C30A400AB01AA01B9
:10133000A901A801AF01AE01AD01AC01B301B20139
:10134000B101B001B701B601B501B4010A30BB006B
:10135000D730BA002330B9007930B800C301C201D8
:10136000C101C001C701C601C501C401CB01CA0149
:10137000C901C801CF01CE01CD01CC018312950175
:10138000871001308316E200E3008A1183129C2249
:101390008A154F3003178D0001308F008A11031317
:1013A0001A238A1501308316E2000230E3008A1105
:1013B00083129C228A15543003178D0001308F0050
:1013C0008A1103131A238A15E208031DF729E3087B
:1013D000031DF7298316D7015E30D6008A118312C8
:1013E0008E2B8A157908E3007808E2000C2EFB08A2
:1013F0000319042A83163F08BB003E08BA003D08C3
:10140000B9003C08B80083120130EA008101E9010B
:10141000E80163088316D700831262088316D6009A
:101420008A118312CA248A157A088316AF007908B4
:10143000AE007808AD007708AC0083142F08E100F7
:101440002E08E0002D08DF002C08DE003708E5003C
:101450003608E4003508E3003408E2008A118312FC
:10146000E9248A157A088316CB007908CA0078081F
:10147000C9007708C80083144B08E1004A08E0005F
:101480004908DF004808DE004708E5004608E40098
:101490004508E3004408E2008A118312E9248A1512
:1014A0007A088316D7007908D6007808D50077081F
:1014B000D4005708DD005608DC005508DB0054084E
:1014C000DA003B08E1003A08E0003908DF0038089C
:1014D000DE008A1183122F268A157A088316CF0020
:1014E0007908CE007808CD007708CC004B08DD00E5
:1014F0004A08DC004908DB004808DA003B08E10044
:101500003A08E0003908DF003808DE008A1183124B
:10151000FB268A15831083164308E1004208E00089
:101520004108DF004008DE007A08E5007908E400A1
:101530007808E3007708E2008A118312E9248A150B
:101540007A088316C3007908C2007808C1007708BA
:10155000C0004B08C7004A08C6004908C500480833
:10156000C4002308DD002208DC002108DB0020087D
:10157000DA004B08E1004A08E0004908DF004808AB
:10158000DE008A118312FB268A157A088316D7009B
:101590007908D6007808D5007708D4002708DD0040
:1015A0002608DC002508DB002408DA004308E100F7
:1015B0004208E0004108DF004008DE008A11831283
:1015C000FB268A15831083165708E1005608E000B1
:1015D0005508DF005408DE007A08E5007908E400C9
:1015E0007808E3007708E2008A118312E9248A155B
:1015F0007A088316D7007908D6007808D5007708CE
:10160000D4002B08DD002A08DC002908DB002808AC
:10161000DA004F08E1004E08E0004D08DF004C08FA
:10162000DE008A118312FB268A1583108316570861
:10163000E1005608E0005508DF005408DE007A0893
:10164000E5007908E4007808E3007708E2008A11F1
:101650008312E9248A157A088316B3007908B20048
:101660007808B1007708B0003308D9003208D800F4
:101670003108D7003008D600DD01DC01DB01DA01DA
:101680008A11831272278A15031C482B8714492B51
:1016900087108316D901D8014030D7008230D60098
:1016A0003308DD003208DC003108DB003008DA00E6
:1016B0008A11831272278A15031C662B8316B301C5
:1016C000B2014030B1008230B0008312831633087B
:1016D000D9003208D8003108D7003008D600DD0123
:1016E000DC01C030DB008230DA008A1183127227FD
:1016F0008A15031C832B8316B301B201C030B100DD
:101700008230B000831283163008F7003108F800E9
:101710003208F9003308FA00F813DD01C030DC00AC
:101720007F30DB008830DA003308E1003208E00067
:101730007808DF003008DE008A118312FB268A1544
:101740007A088316D7007908D6007808D50077087C
:10175000D4005708DD005608DC005508DB005408AB
:10176000DA00E101E0014030DF008230DE008A1162
:1017700083122F268A157A088316D7007908D60097
:101780007808D5007708D4005708DD005608DC003B
:101790005508DB005408DA008A118312B3278A1532
:1017A0007908FE007808FD007E08033C0318DC2B56
:1017B0000330FE00FF30FD007E088316D7007D0851
:1017C000D600D901D030D800DB01D130DA00831245
:1017D0000028831650088312950097128316511C17
:1017E000F42B831297168316831217128316521C3A
:1017F000FC2B83121716831683128E018F01071894
:10180000FF2B071C012C10140718042C071C062C96
:1018100010100F088316D50083120E088316D4000B
:101820008312F701F8017708831654078312EB003F
:10183000831655088312EC0078080318780FEC071C
:101840006408ED00003003180130ED076508EE0074
:10185000003003180130EE076E088316DD00831296
:101860006D088316DC0083126C088316DB0083127C
:101870006B088316DA008312322080308316DD0075
:101880009630DC001830DB009530DA007A08E10091
:101890007908E0007808DF007708DE008A118312FB
:1018A0002F268A157A088316D7007908D60078087B
:1018B000D5007708D4005708DD005608DC0055082D
:1018C000DB005408DA00E101E0014030DF00833042
:1018D000DE008A1183122F268A157A088316D70014
:1018E0007908D6007808D5007708D4005708DD00BD
:1018F0005608DC005508DB005408DA00E101E0017D
:101900007030DF008430DE008A118312FB268A15D6
:101910007A08F6007908F5007808F4007708F300F3
:1019200076088316DD007508DC007408DB00730898
:10193000DA008A118312B3278A1579088316D70033
:101940007808D6008A118312CA248A157A08831669
:10195000B7007908B6007808B5007708B400013000
:10196000FB008312E701E601E501E401EA01003032
:101970000107EF006808F000003003180130F0079D
:10198000F101F2016F0D8316D400700DD500710DB9
:10199000D600720DD700D40DD50DD60DD70DD40DB0
:1019A000D50DD60DD70DD40DD50DD60DD70DD40D23
:1019B000D50DD60DD70DD40DD50DD60DD70DD40D13
:1019C000D50DD60DD70D8030D4055708DD0056084B
:1019D000DC005508DB005408DA00831232207A0854
:1019E0008316DD007908DC007808DB007708DA0070
:1019F000E101E001DF017F30DE008A118312FB2666
:101A00008A157A088316D7007908D6007808D50099
:101A10007708D4005708DD005608DC005508DB00C5
:101A20005408DA008030E1009630E0001830DF0022
:101A30009530DE008A1183122F268A157A088316C4
:101A4000BF007908BE007808BD007708BC000930E7
:101A5000E2000130E3008A1183129C228A151030C3
:101A6000840063088316D900831262088316D800A5
:101A700083124F205A3003178D0001308F0003145A
:101A8000053083160313D8008312D5200A3083163D
:101A9000E2000230E3008A1183129C228A15760844
:101AA0008316DD007508DC007408DB007308DA00BB
:101AB0008A118312B3278A1579088316D50078080E
:101AC000D400103084005508D9005408D80083127F
:101AD0004F205F3003178D0001308F000314053055
:101AE00083160313D8008312D520FC08031D052E8E
:101AF0008316D3015308043C031C8C2D4E3053072E
:101B0000840083130008D400D7008A118312EE27C3
:101B10008A158316D30A7A2D0A30D7008A118312C8
:101B2000EE278A150D308316D7008A118312EE270F
:101B30008A158316D3015308043C031CAD2D543081
:101B40005307840083130008D400D7008A1183123E
:101B5000EE278A158316D30A9B2D0A30D7008A11E7
:101B60008312EE278A150D308316D7008A1183124F
:101B7000EE278A158316D3010D3083124C0283168B
:101B800053020318D12D5A305307840083130008E1
:101B9000D400D7008A118312EE278A158316D30A40
:101BA000BC2D0A30D7008A118312EE278A150D301A
:101BB0008316D7008A118312EE278A158316D30164
:101BC00083124C084D02FF3E831653020318F62D74
:101BD0005E305307840083130008D400D7008A11B5
:101BE0008312EE278A158316D30AE02D0A30D70018
:101BF0008A118312EE278A150D308316D7008A11B9
:101C00008312EE278A150130FC000A308316E200A9
:0C1C10008A11831263218A15E429630005
:02400E00323F3F
:00000001FF
;PIC16F877A
;CRC=7243  CREATED="20-May-24 02:36"
